:020000040800F2
:1040000010060020C9400008BD4900083B420008D6
:1040100000000000000000000000000000000000A0
:104020000000000000000000000000001D4C00081F
:104030000000000000000000114A0008CD4C0008FC
:10404000F340000800000000F3400008F3400008BF
:10405000F3400008F3400008F3400008F340000874
:1040600000000000F3400008F3400008F34000089F
:10407000F3400008F3400008F3400008000000008F
:10408000314D00080000000000000000F34000086F
:10409000F3400008F3400008F3400008F340000834
:1040A000F3400008F3400008F3400008795400088A
:1040B000F34000080348854600F052F800480047E6
:1040C000A9590008100600200A4880F308880A4809
:1040D0000168090E094A914202D109480949016063
:1040E0000948804709480047FEE7FEE7FEE7FEE78C
:1040F000FEE7FEE710060020040000001F0000009D
:104100001810024001000000D14C0008B540000822
:1041100030B50B46014600202022012409E00D465F
:10412000D5409D4205D31D469540491B25469540E7
:1041300040191546521E002DF1DC30BD03460B43DD
:104140009B0703D009E008C9121F08C0042AFAD24D
:1041500003E00B780370401C491C521EF9D27047D3
:10416000064C0125064E05E0E36807CC2B430C3CCA
:1041700098471034B442F7D3FFF7A0FFF05D000872
:10418000005E000802488168012211438160704787
:1041900000300240F0B50022012423460D68934010
:1041A0001D409D422AD10D79012D01D0022D12D141
:1041B000876855000326AE40B74387604E79AE400E
:1041C00085682E43866085889D43858085888B79A8
:1041D00093401D438580066855000323AB409E43F2
:1041E00006600E790768AE403E430660C6689E438F
:1041F000C660CB79AB40C5682B43C360521C102A04
:10420000CBD3F0BD4B07DB0E9A40C90810B589002F
:104210000818016A0F249C40A1430162016A1143FE
:10422000016210BD0246128A00200A4200D001201D
:1042300070470185704781617047FEE770B505469C
:104240000C465D2000F0D0FC002801D000F006FCF8
:10425000064800F02DF8284600F01EF8204600F031
:1042600021F800F011F800F003F870BD555500007A
:104270000249014808607047CCCC00000030004083
:1042800010B500F001F810BD024901480860704700
:10429000AAAA0000003000400149486070470000B1
:1042A0000030004001498860704700000030004045
:1042B0000149086070470000003000401CB525200F
:1042C0000121400400F0A6FB8020009001206946F7
:1042D000087100208871C871032048710148FFF7F8
:1042E00059FF1CBD00140048FEB50F2001214004F9
:1042F00000F090FBFF27F437012568460097057111
:1043000000248471C4710326467109206946C006E1
:10431000FFF740FF09203946C006FFF78AFF174F15
:104320006846009705718471C471467169461448E6
:10433000FFF730FF39461248FFF77BFF68460097CA
:1043400005718471C471467169460E48FFF722FFFA
:1043500039460C48FFF76DFF042000906846057150
:104360008471C471084C467169462046FFF712FFFC
:1043700004212046FFF75DFFFEBD0000FFFF0000A7
:104380000004004800080048000C0048FEB5FC4846
:10439000017801297AD100210170FA4FFA4D38468F
:1043A00020300190284620300C46F84E0090F2E272
:1043B000F4481438005D030001F088F929FA162644
:1043C000374758697A8B9CADBDCEFBF8F7F6F5F40C
:1043D000F3F2F1F0EFEEEDECEBEAE9E8E7E6E5E425
:1043E000E3E2E1E0DFDEFA000821E948FFF723FF1E
:1043F00001203870E3481438001940782870642888
:1044000001D964202870C4E209200121C006FFF709
:1044100012FF01207870DB4814380019407868706A
:104420006428F0D964206870B3E20421D848FFF70B
:1044300002FF0120B870D348143800194078A870E2
:104440006428E0D96420A870A3E209200221C006F4
:10445000FFF7F1FE0120F870CA48143800194078BF
:10446000E8706428CFD96420E87092E20421C9483A
:10447000FFF7E1FE01203871C24814380019407876
:1044800028716428BFD96420287182E288E2012162
:104490008903BF48FFF7CFFE01207871B94814386F
:1044A0000019407868716428ADD96420687170E2A1
:1044B00001210903B648FFF7BEFE0120B871B148DB
:1044C000143800194078A87164289CD96420A87118
:1044D0005FE20121C903AE48FFF7ADFE0120F8718C
:1044E000A848143800194078E87164288BD96420F2
:1044F000E8714EE20121C902A548FFF79CFE0120A8
:104500003872A048143800194078287264288BD972
:10451000642028723DE201219D48FFF78CFE0120B6
:1045200078729848143800194078687264288BD9DA
:10453000642068722DE2012189029548FFF77BFE15
:104540000120B8728F48143800194078A872642886
:104550008BD96420A8721CE202218D48FFF76BFE04
:104560000120F8728748143800194078E8726428EE
:104570008BD96420E8720CE2EAE1D7E1C4E1B1E151
:104580009FE18DE17BE168E158E147E137E125E119
:1045900014E103E1E3E0D1E0BFE0ADE09CE08BE0BB
:1045A00079E068E056E045E033E022E011E000E029
:1045B000E0E140217848FFF73EFE01203873714862
:1045C0001438001940782873642892D9642028731D
:1045D000DFE180217048FFF72EFE012078736948E3
:1045E0001438001940786873642893D9642068737C
:1045F000CFE120216848FFF71EFE0120B873614813
:10460000143800194078A873642893D96420A873DB
:10461000BFE1FF2101316048FFF70DFE0120F87373
:104620005848143800194078E873642893D96420F6
:10463000E873AEE110215848FFF7FDFD0120387402
:1046400050481438001940782874642893D964209D
:1046500028749EE1012149024F48FFF7ECFD01203B
:104660007874484814380019407868746428AFD9C1
:10467000642068748DE108214748FFF7DCFD0120C4
:10468000B8744048143800194078A87464289FD939
:104690006420A8747DE1012149033D48FFF7CBFD6B
:1046A0000120F8743748143800194078E8746428F9
:1046B0008ED96420E8746CE140213548FFF7BBFDDA
:1046C000012038752F48143800194078287564285F
:1046D0008ED9642028755CE104212F48FFF7ABFDDB
:1046E00001207875274814380019407868756428C7
:1046F0008ED9642068754CE10121C9032648FFF773
:104700009AFD0120B8751F48143800194078A87523
:1047100064288ED96420A8753BE1012189021E48D6
:10472000FFF789FD0120F875164814380019407804
:10473000E87564288DD96420E8752AE10121890390
:104740001548FFF778FD012038760E481438001917
:104750004078287664288DD96420287619E10121D3
:10476000C9020D48FFF767FD012078760548143827
:1047700000194078687664288CD96420687608E14E
:10478000D6000020480100200C010020D0010020AC
:1047900000080048000C00480004004801214903BB
:1047A0008048FFF748FD0120B8767F48001940781F
:1047B000A87664288FD96420A876EAE0012109034D
:1047C0007848FFF738FD0120F876774800194078DF
:1047D000E87664288FD96420E876DAE0FF210920A2
:1047E0000131C006FFF727FD012038776E48001918
:1047F00040782877642801D964202877C9E01021FF
:104800006A48FFF718FD012078776748001940785B
:104810006877642801D964206877BAE001214902E9
:104820006248FFF708FD0120B8775F48001940781B
:10483000A877642801D96420A877AAE020215B48E2
:10484000FFF7F9FC0120F877574800194078E8771E
:10485000642801D96420E8779BE0FF2101315348A7
:10486000FFF7E9FC0199012008704F4800990019F1
:1048700040780870642801D96420087089E001211B
:104880004848FFF7D8FC0199012048704648009934
:1048900000194078487064287BD96420487078E01B
:1048A00080214248FFF7C7FC0199012088703E48EB
:1048B000009900194078887064286AD9642088704B
:1048C00067E002213748FFF7B6FC01990120C87064
:1048D0003548009900194078C870642859D9642077
:1048E000C87056E009208021C006FFF7A4FC01999A
:1048F000012008712C48009900194078087164283B
:1049000047D96420087144E009201021C006FFF750
:1049100092FC0199012048712348009900194078C0
:104920004871642835D96420487132E0092040215B
:10493000C006FFF780FC0199012088711A48009990
:10494000001940788871642823D96420887120E098
:1049500009202021C006FFF76EFC01990120C871D3
:104960001148009900194078C871642811D9642051
:10497000C8710EE001210920C902C006FFF75BFCE7
:104980000BA000F07DFE01210920C902C006FFF73F
:1049900050FCA41CE4B2B079801FA04200DD07E502
:1049A000FEBD00000004004834010020000800485B
:1049B00041444E554D4552520000000070470000E2
:1049C00030B5837801210278002B15D094080E4B66
:1049D000A400E41823689207D50EFF22AA4093434F
:1049E00042789207120EAA401A4322600078C0064D
:1049F000C00E8140054804E0D006C00E8140034847
:104A00008030016030BD000000E400E000E100E023
:104A100070470000044A0029516901D0014300E0B9
:104A2000814351617047000000100240044A002990
:104A3000D16901D0014300E08143D161704700009A
:104A400000100240044A0029916901D0014300E0AE
:104A50008143916170470000001002400348416AA1
:104A6000012212061143416270470000001002400B
:104A7000F8B5564D0446686800210C22544E10408B
:104A800005D0042803D0082803D00C281AD02660AB
:104A90001AE06968686803228902D2030F0F104088
:104AA000BF1C00280AD0E86A0107090F3046491CDC
:104AB000FFF72EFB78430146216005E04548394663
:104AC0004143F9E7444820606868444F0006000FFE
:104AD0003B5C20680246DA4062606B685B055B0FF6
:104AE000FB5CDA40A2602B6BDB0501D43C4B05E09C
:104AF0006B685B0401D4530800E09308E3602B6B00
:104B00005F06384B03D4374F1237276100E023612B
:104B10002F6BFF0601D4666100E060612F6BBF0759
:104B20000ED02F6BBF07BF0F012F0BD02F6BBF070E
:104B3000BF0F022F08D02F6BFF43BF0706D006E040
:104B4000A26104E0A06102E0A36100E0A6612F6B16
:104B5000BF03BF0F0FD02F6BBF03BF0F012F0CD0B0
:104B60002F6BBF03BF0F022F09D02F6BBF03BF0FE7
:104B7000032F06D006E0E26104E0E06102E0E361B9
:104B800000E0E6612F6B3F03BF0F0FD02A6B1203CB
:104B9000920F012A0CD0286B0003800F022809D045
:104BA000286B0003800F032806D006E0226204E091
:104BB000206202E0236200E02662286B000602D435
:104BC00005486062F8BD6162F8BD00000010024057
:104BD00000127A0000093D00006CDC02C1000020D8
:104BE000809FD50000800000034600200A495A0932
:104BF0000CD0012A0CD0022A0CD0496BDA06D20E56
:104C0000012393400B4200D0012070470968F5E76B
:104C1000096AF3E7496AF1E70010024070470000B3
:104C2000034A116889088900014311607047000038
:104C3000000001401CB5002122480191009102684A
:104C400001231B041A4302605B000522120304685F
:104C50001C400094019C641C0194009C002C02D117
:104C6000019C9442F3D10268920328D5012100915E
:104C7000154A1121116041684160416841604168F5
:104C80007F22D203914341604168112212041143F3
:104C90004160016801221206114301600168890127
:104CA000FCD54168890889004160416802221143AE
:104CB000416041680907890F0229FAD11CBD0091A2
:104CC0001CBD0000001002400020024070470000A0
:104CD00010B5144801680122114301604168124A6D
:104CE000114041600168114A1140016001680122D0
:104CF00092049143016041683F2212049143416054
:104D0000C16A09090901C162016BFF225432914352
:104D10000163416B49084900416300218160FFF74D
:104D200089FF10BD001002400CB8FF08FFFFF6FE1F
:104D3000F8B5FF4C0121204600F04FFB00287DD044
:104D40000121204600F03CFBFA4C2078401C2070EA
:104D5000F9480178002501290CD1A18DF74A491C99
:104D600089B2A185914205D1A58505700121F4483C
:104D700000F0C5FBF34E307801282BD1608D401C2C
:104D800080B26085642806D2FF2109200131C00667
:104D9000FFF751FA11E06078082802D8401C6070D3
:104DA000F2E7401CC0B260700A2800D96570FF218C
:104DB00009200131C006FFF73CFA608DE2498842C4
:104DC00008D935706585FF21092065700131C0065D
:104DD000FFF72FFA2078C82805D1DC482570818A92
:104DE000802251408182DA4FDA4E387801280CD186
:104DF000A078401CC0B2A0703178814205D13D70CE
:104E0000A5700821D448FFF714FA787801280DD14D
:104E1000E078401CC0B2E0707178814206D17D70AC
:104E20000920E5700121C006FFF703FAB8780128D0
:104E30000ED12079401CC0B2207100E08DE2B17823
:104E4000814205D1BD7025710421C348FFF7F1F9F6
:104E5000F87801280DD16079401CC0B26071F178FA
:104E6000814206D1FD70092065710221C006FFF75D
:104E7000E0F9387901280CD1A079401CC0B2A071AA
:104E80003179814205D13D71A5710421B348FFF705
:104E9000D0F9787901280DD1E079401CC0B2E071D9
:104EA0007179814206D17D710121E5718903AA489A
:104EB000FFF7BFF9B87901280DD1207A401CC0B2A4
:104EC0002072B179814206D1BD7101212572090399
:104ED000A148FFF7AEF9F87901280DD1607A401C9E
:104EE000C0B26072F179814206D1FD710121657213
:104EF000C9039948FFF79DF9387A01280DD1A07AA6
:104F0000401CC0B2A072317A814206D13D720121AB
:104F1000A572C9029048FFF78CF9787A01280CD164
:104F2000E07A401CC0B2E072717A814205D17D7294
:104F3000E57201218848FFF77CF9B87A01280DD184
:104F4000207B401CC0B22073B17A814206D1BD7271
:104F50000121257389028048FFF76BF9F87A01284F
:104F60000CD1607B401CC0B26073F17A814205D1E4
:104F7000FD72657302217848FFF75BF9387B0128E1
:104F80000CD1A07B401CC0B2A073317B814205D103
:104F90003D73A57340217248FFF74BF9787B0128D8
:104FA0000CD1E07B401CC0B2E073717B814205D123
:104FB0007D73E57380216A48FFF73BF9B87B0128D0
:104FC0000CD1207C401CC0B22074B17B814205D141
:104FD000BD73257420216248FFF72BF9F87B012867
:104FE0000DD1607C401CC0B26074F17B814206D15F
:104FF000FD73FF21657401315948FFF71AF9387CB8
:1050000001280CD1A07C401CC0B2A074317C81422C
:1050100005D13D74A57410215148FFF70AF9787C39
:1050200001280DD1E07C401CC0B2E074717C81424B
:1050300006D17D740121E57449024948FFF7F9F86A
:10504000B87C01280CD1207D401CC0B22075B17CF9
:10505000814205D1BD74257508214148FFF7E9F863
:10506000F87C01280DD1607D401CC0B26075F17CD8
:10507000814206D1FD740121657549033648FFF769
:10508000D8F8387D01280CD1A07D401CC0B2A07595
:10509000317D814205D13D75A57540212E48FFF730
:1050A000C8F8787D01280CD1E07D401CC0B2E075C5
:1050B000717D814205D17D75E57504212848FFF792
:1050C000B8F8B87D01280DD1207E401CC0B22076F2
:1050D000B17D814206D1BD7501212576C9032048E5
:1050E000FFF7A7F8F87D01280DD1607E401CC0B203
:1050F0006076F17D814206D1FD75012165768902D8
:105100001748FFF796F8387E01280DD1A07E401C85
:10511000C0B2A076317E814206D13D760121A576CE
:1051200089030F48FFF785F8787E012828D119E018
:1051300000040040D800002006010020B80B000049
:1051400000380140070100208813000000140048C7
:10515000480100200C01002000080048000C004815
:1051600000040048E07E401CC0B2E076717E8142BF
:1051700006D17D760121E576C9027848FFF759F816
:10518000B87E01280DD1207F401CC0B22077B17EAF
:10519000814206D1BD760121257749036F48FFF78B
:1051A00048F8F87E01280DD1607F401CC0B26077BE
:1051B000F17E814206D1FD760121657709036748BA
:1051C000FFF737F8387F01280ED1A07F401CC0B20E
:1051D000A077317F814207D13D77FF210920A57754
:1051E0000131C006FFF725F8787F01280CD1E07F58
:1051F000401CC0B2E077717F814205D17D77E577B1
:1052000010215748FFF715F8B87F564C01280DD1EB
:105210002078401CC0B22070B17F814206D1BD779A
:105220000121257049024E48FFF703F8F87F012855
:105230000CD16078401CC0B26070F17F814205D112
:10524000FD77657020214648FEF7F3FF464E474F35
:10525000307801280DD1A078401CC0B2A0703978F8
:10526000814206D13570FF21A57001313C48FEF71F
:10527000E0FF707801280CD1E078401CC0B2E070EB
:105280007978814205D17570E57001213348FEF7C8
:10529000D0FFB07801280CD12079401CC0B2207119
:1052A000B978814205D1B570257180212C48FEF76F
:1052B000C0FFF07801280CD16079401CC0B2607149
:1052C000F978814205D1F570657102212348FEF716
:1052D000B0FF307901280DD1A079401CC0B2A07177
:1052E0003979814206D135710920A5718021C00626
:1052F000FEF79FFF707901280DD1E079401CC0B204
:10530000E0717979814206D175710920E57110212A
:10531000C006FEF78EFFB07901280DD1207A401C1F
:10532000C0B22072B979814206D1B57109202572C7
:105330004021C006FEF77DFFF07901280DD1607A8B
:10534000401CC0B26072F979814206D1F571092022
:1053500065722021C006FEF76CFFF8BD000400480E
:1053600000080048F8000020680100202C010020FF
:105370007FB50C46054601210220FFF757FB6A4620
:1053800001951480002010810C4C50806946204605
:1053900000F038F801221146204600F02AF81020CB
:1053A0006A46107301215173917303A8FFF708FB3C
:1053B0000121204600F007F87FBD000000040040F6
:1053C000C943018270470029018802D0012211439C
:1053D00001E049084900018070470246138A002015
:1053E00092890B400A40002B02D0002A00D00120F5
:1053F0007047002A828901D00A4300E08A438281F3
:105400007047000010B50288144B984206D0012462
:10541000A407A04202D0124CA04203D17024A243A0
:105420004C8822430F4CA04203D00F4C22400C89E1
:10543000224302804A68C2620A880285984208D0E4
:105440000A4A904205D00A4A904202D0094A904244
:1054500001D1897A01860121818210BD002C014091
:105460000004004000100040FFFC0000004001402C
:10547000004401400048014070B51A4E18493046BA
:1054800000F04EF80025184C002817D0304600F0E8
:10549000CDF86179C0B2012903D165712571E5713B
:1054A000A5712179104A603A50542079401C20712E
:1054B0002079642801D300F00DFB70BD0B49304604
:1054C00000F02EF80028F8D01021304600F010F837
:1054D00001206071E0712079A071257170BD00001C
:1054E0000501050000380140D0010020040104003E
:1054F000016270470A0C0121914001627047002946
:10550000016802D00122114301E04908490001600D
:1055100070470246D26900200A4200D0012070473D
:1055200030B50A04130E0122144600258C40012BCD
:105530000ED0022B0ED08368090C2340C0698A402C
:105540001040002B02D0002800D00125284630BD95
:105550000368F1E74368EFE710B50B041C0E012365
:105560008B40022C02D0032C02D002E0001D00E090
:1055700008300168002A01D0194300E09943016016
:1055800010BD000030B5044600688BB00D464008E1
:10559000400020606068032109038843A968014333
:1055A000616020681C49EA680840696811432A69FB
:1055B000024311432160A0680321090288436969FD
:1055C0000143A1606846FFF753FA1448844201D1B1
:1055D00006980AE01248844201D1079805E0114874
:1055E000844201D1089800E00298216809042968E2
:1055F00000D54000FEF78CFD2A6852088A4200D888
:10560000401C2168090404D50107074A490F1040CE
:105610000843A0810BB030BDF3E9FFFF0038014023
:105620000044004000480040F0FF0000808CC005AE
:10563000C00D7047C905C90D0185704710B50446F6
:10564000FFF7F8FF40212046FFF763FF0028F9D05D
:1056500040210248FFF74CFF10BD00000038014018
:10566000F8B516460D460746002406E02978384668
:105670006D1CFFF7E3FF641CE4B2B442F6D3F8BD3F
:105680000FB410B503A9044B044A029800F03AF88D
:1056900010BC08BC04B01847855900080801002058
:1056A0000FB41CB50A46521E0192009007A9064B82
:1056B0006A46069800F026F8009A002111701CBC7A
:1056C00008BC04B018470000D757000830B474462F
:1056D000641E2578641CAB4200D21D46635D5B00EE
:1056E000E31830BC184702E008C8121F08C1002A9E
:1056F000FAD170477047002001E001C1121F002A53
:10570000FBD17047FFB581B00546002706E025288C
:105710000AD0049A039990476D1C7F1C28780028B2
:10572000F5D1384605B0F0BD002269786D1C1046F1
:105730002E2913D1697804226D1C2A2909D10299D6
:105740006D1C01C9029109E00A235843303808183A
:105750006D1C29780B46303B092BF5D92B78002B93
:10576000DFD0632B07D0732B10D0049A184603990F
:1057700090477F1C2DE002996C460B782370091D21
:105780000291002161706E46012104E0029940C936
:1057900002910021C94352070AD5002400E0641C8D
:1057A00084420DDA8C42FADB325D002AF7D107E041
:1057B000002400E0641C8C42FCDB305D0028F9D141
:1057C0003F1904E03078049A761C03999047641ED0
:1057D000F8D26D1CA2E74A68002A06D00A68531C5A
:1057E0000B6010704868401E4860704770B50D46E9
:1057F0000446FEF7C7FC0022054804E0217801605A
:10580000521CD2B2641CAA42F8D3006870BD0000DA
:105810000030024010B501214020FFF7FBF810BD19
:105820000A49498848430A49486100228A6108694F
:105830000123184308610869C30701D0C003FAD5E2
:1058400008694008400008618A617047D200002062
:1058500000E000E07CB5212001214004FFF7DAF8E8
:105860003020009000246846047184710125C571C0
:105870000326467169460848FEF78CFC0C20009010
:10588000684604718471C571467109206946C00675
:10589000FEF780FC7CBD00000014004870B5334D5D
:1058A000002420212846FEF7BDFC012800D1012458
:1058B00010212846FEF7B6FC012820D0FD20044028
:1058C0000925ED0608212846FEF7ACFC012819D071
:1058D000FB20044004212846FEF7A4FC012814D034
:1058E000F720204022490300FFF7F0FE1031121488
:1058F00016181A1C1E20222426282A2C2E3102209B
:105900000443DDE704200443E4E708202043E9E7FB
:1059100041221AE0422218E0432216E0442214E019
:10592000452212E0462210E047220EE048220CE019
:1059300049220AE04A2208E04B2206E04C2204E019
:105940004D2202E04E2200E04F220A7070BD012479
:10595000E40221462846FEF76EFC06A0FFF790FE03
:1059600021462846FEF765FC5A2070BD0014004809
:10597000C0000020414453544F5245594552520DE6
:105980000A00000010B504460649C0B20881054867
:105990002038C1694906FCD54021FFF7A9FD204602
:1059A00010BD0000203801401649C022C803FEF790
:1059B000C5FB0320FFF734F9FEF796FC4721124898
:1059C000FFF7D6FCE120400200F020F8FEF776FC5D
:1059D000FFF740FFFFF71EFFFF21F5310620FEF71E
:1059E0002DFC04E0FEF74CFC0A20FFF719FFFFF73F
:1059F00055FF5A28F6D000F0B3F8FEF7C7FCFEF7C3
:105A00003FFCF8E70040000887130000F1B50121D2
:105A10008AB08803FFF716F801214804FEF7FAFF61
:105A200009210122C806FEF7EDFB092001220A2107
:105A3000C006FEF7E7FB03204002009003266846FD
:105A4000467102270771002484710125C571092060
:105A50006946C006FEF79EFBE802009068460571A5
:105A60008471C471467109206946C006FEF792FB35
:105A70001B21684601724772857202A8FEF7A0FFDB
:105A80000A98089404940594069403900C200D4CF5
:105A9000079003A92046FFF775FD0B492046FFF745
:105AA00029FD012209492046FFF756FD0122084938
:105AB0002046FFF751FD01212046FFF720FD0BB0E6
:105AC000F0BD000000380140060106000501050098
:105AD000040104000949002210B50846134660304D
:105AE00002E08B54521CD2B284799442F9D80B70E4
:105AF0000371C37101214171837110BD70010020D8
:105B0000F7B5012509260446ED02F6061746294693
:105B10003046FEF790FB3A460F4F01993846FFF7A3
:105B20009FFD210E3846FFF789FD2002010E384601
:105B3000FFF784FD2004010E3846FFF77FFDE1B238
:105B40003846FFF77BFD05A0FFF79AFD2946304652
:105B5000FEF76FFBFEBD0000003801400D0A00009B
:105B6000F8B5854CE079012871D10020E071254617
:105B7000824E603D28783178884269D1A079001F33
:105B8000C1B22846FFF732FEA379020E291F595CE5
:105B90008A423ED10102A3790A0EE91E595C8A426B
:105BA000F7D10104A3790A0EA91E595C8A42F0D1EB
:105BB000A279C1B2681E105C8142EAD16978274699
:105BC0006F4808374D2925D004DC442941D04C29A1
:105BD00004D113E056297DD0582922D03078664B65
:105BE0003870083367A209211846FFF759FD62484B
:105BF00008210830FFF7FAFD082206E03178452930
:105C0000C7D11021FEF717FB11E05B490831FFF700
:105C100077FFA6E031784529FBD11021FEF709FB7B
:105C200005E030784528F4D1594901204870307892
:105C3000514B3870083357A205211846FFF730FD45
:105C40004D4804210830FFF7D1FD0422DDE791E043
:105C500057E0A079162818D901210920C902C006E9
:105C6000FEF7E9FA3078444B387008334BA20C2128
:105C70001846FFF715FD4DA0FFF702FD0121092091
:105C8000C902C006FEF7D5FA6BE0A079C0070FD0B5
:105C90003078394B3870083347A207211846FFF790
:105CA000FFFC354806210830FFF7A0FD0622ACE7CF
:105CB00043490120087030782F4B3870083335A2E3
:105CC00005211846FFF7ECFC2B4804210830FFF7AC
:105CD0008DFD00E011E0284904220831FFF710FF94
:105CE0000020384904E02A1892780A54401CC0B2B7
:105CF000A279D21F8242F6DA33E033A0FFF7C0FC6C
:105D00002FE052282DD1687845282AD1A878532829
:105D100027D1E878452824D12879542821D16979D8
:105D20003078814216D101240925E402ED0621468E
:105D30002846FEF780FA28A0FFF7A2FC2146284655
:105D4000FEF777FABFF34F8F27492648C860BFF3A5
:105D50004F8FFEE70E490120087000212348FFF70E
:105D6000CEFB0020014602E02954401CC0B2A279BB
:105D70008242F9D8F8BD0000D0010020C000002008
:105D800000080048257344434D444552520000002A
:105D9000060100202573444F4B0000002573444E3C
:105DA000554D4558434545440000000073656E64F9
:105DB0006275660D0A000000257344444552520086
:105DC000D60000203401002076657273696F6E2062
:105DD000312E302F722F6E004D435552455345548E
:105DE0000D0A00000400FA0500ED00E00038014053
:105DF000005E0008C00000204C000000E6560008CD
:105E00000000000000010203040102030406070869
:105E10000900000000000000000000000000000079
:105E20000000000000000000000000000000000072
:105E30000000000000000000000000000000000062
:0C5E400000000000000000000000000056
:04000005080040B5FA
:00000001FF
